{
  "contractName": "ERC20Interface",
  "abi": [
    {
      "payable": true,
      "stateMutability": "payable",
      "type": "fallback"
    },
    {
      "anonymous": false,
      "inputs": [
        {
          "indexed": true,
          "name": "from",
          "type": "address"
        },
        {
          "indexed": true,
          "name": "to",
          "type": "address"
        },
        {
          "indexed": false,
          "name": "tokens",
          "type": "uint256"
        }
      ],
      "name": "Transfer",
      "type": "event"
    },
    {
      "anonymous": false,
      "inputs": [
        {
          "indexed": true,
          "name": "tokenOwner",
          "type": "address"
        },
        {
          "indexed": true,
          "name": "spender",
          "type": "address"
        },
        {
          "indexed": false,
          "name": "tokens",
          "type": "uint256"
        }
      ],
      "name": "Approval",
      "type": "event"
    },
    {
      "anonymous": false,
      "inputs": [
        {
          "indexed": true,
          "name": "buyer",
          "type": "address"
        },
        {
          "indexed": false,
          "name": "TokenAmount",
          "type": "uint256"
        },
        {
          "indexed": false,
          "name": "weiAmount",
          "type": "uint256"
        }
      ],
      "name": "TokensBought",
      "type": "event"
    },
    {
      "anonymous": false,
      "inputs": [
        {
          "indexed": true,
          "name": "seller",
          "type": "address"
        },
        {
          "indexed": false,
          "name": "TokenAmount",
          "type": "uint256"
        },
        {
          "indexed": false,
          "name": "weiAmount",
          "type": "uint256"
        }
      ],
      "name": "TokensSold",
      "type": "event"
    },
    {
      "constant": true,
      "inputs": [],
      "name": "getTotalSupply",
      "outputs": [
        {
          "name": "",
          "type": "uint256"
        }
      ],
      "payable": false,
      "stateMutability": "view",
      "type": "function"
    },
    {
      "constant": true,
      "inputs": [
        {
          "name": "tokenOwner",
          "type": "address"
        }
      ],
      "name": "balanceOf",
      "outputs": [
        {
          "name": "balance",
          "type": "uint256"
        }
      ],
      "payable": false,
      "stateMutability": "view",
      "type": "function"
    },
    {
      "constant": true,
      "inputs": [
        {
          "name": "tokenOwner",
          "type": "address"
        },
        {
          "name": "spender",
          "type": "address"
        }
      ],
      "name": "allowance",
      "outputs": [
        {
          "name": "remaining",
          "type": "uint256"
        }
      ],
      "payable": false,
      "stateMutability": "view",
      "type": "function"
    },
    {
      "constant": false,
      "inputs": [
        {
          "name": "to",
          "type": "address"
        },
        {
          "name": "tokens",
          "type": "uint256"
        }
      ],
      "name": "transfer",
      "outputs": [
        {
          "name": "success",
          "type": "bool"
        }
      ],
      "payable": false,
      "stateMutability": "nonpayable",
      "type": "function"
    },
    {
      "constant": false,
      "inputs": [
        {
          "name": "spender",
          "type": "address"
        },
        {
          "name": "tokens",
          "type": "uint256"
        }
      ],
      "name": "approve",
      "outputs": [
        {
          "name": "success",
          "type": "bool"
        }
      ],
      "payable": false,
      "stateMutability": "nonpayable",
      "type": "function"
    },
    {
      "constant": false,
      "inputs": [
        {
          "name": "from",
          "type": "address"
        },
        {
          "name": "to",
          "type": "address"
        },
        {
          "name": "tokens",
          "type": "uint256"
        }
      ],
      "name": "transferFrom",
      "outputs": [
        {
          "name": "success",
          "type": "bool"
        }
      ],
      "payable": false,
      "stateMutability": "nonpayable",
      "type": "function"
    }
  ],
  "bytecode": "0x608060405234801561001057600080fd5b50610ae9806100206000396000f3fe608060405260043610610078576000357c0100000000000000000000000000000000000000000000000000000000900463ffffffff168063095ea7b31461010c57806323b872dd1461017f57806370a0823114610212578063a9059cbb14610277578063c4e41b22146102ea578063dd62ed3e14610315575b6040517f08c379a00000000000000000000000000000000000000000000000000000000081526004018080602001828103825260378152602001807f596f75206d7573742063616c6c20612066756e6374696f6e20746f20696e746581526020017f726163742077697468207468697320636f6e747261637400000000000000000081525060400191505060405180910390fd5b34801561011857600080fd5b506101656004803603604081101561012f57600080fd5b81019080803573ffffffffffffffffffffffffffffffffffffffff1690602001909291908035906020019092919050505061039a565b604051808215151515815260200191505060405180910390f35b34801561018b57600080fd5b506101f8600480360360608110156101a257600080fd5b81019080803573ffffffffffffffffffffffffffffffffffffffff169060200190929190803573ffffffffffffffffffffffffffffffffffffffff16906020019092919080359060200190929190505050610495565b604051808215151515815260200191505060405180910390f35b34801561021e57600080fd5b506102616004803603602081101561023557600080fd5b81019080803573ffffffffffffffffffffffffffffffffffffffff169060200190929190505050610822565b6040518082815260200191505060405180910390f35b34801561028357600080fd5b506102d06004803603604081101561029a57600080fd5b81019080803573ffffffffffffffffffffffffffffffffffffffff1690602001909291908035906020019092919050505061086b565b604051808215151515815260200191505060405180910390f35b3480156102f657600080fd5b506102ff610a2d565b6040518082815260200191505060405180910390f35b34801561032157600080fd5b506103846004803603604081101561033857600080fd5b81019080803573ffffffffffffffffffffffffffffffffffffffff169060200190929190803573ffffffffffffffffffffffffffffffffffffffff169060200190929190505050610a36565b6040518082815260200191505060405180910390f35b600081600260003373ffffffffffffffffffffffffffffffffffffffff1673ffffffffffffffffffffffffffffffffffffffff16815260200190815260200160002060008573ffffffffffffffffffffffffffffffffffffffff1673ffffffffffffffffffffffffffffffffffffffff168152602001908152602001600020600082825401925050819055508273ffffffffffffffffffffffffffffffffffffffff163373ffffffffffffffffffffffffffffffffffffffff167f8c5be1e5ebec7d5bd14f71427d1e84f3dd0314c0f7b2291e5b200ac8c7c3b925846040518082815260200191505060405180910390a36001905092915050565b600081600160008673ffffffffffffffffffffffffffffffffffffffff1673ffffffffffffffffffffffffffffffffffffffff1681526020019081526020016000205410151515610574576040517f08c379a000000000000000000000000000000000000000000000000000000000815260040180806020018281038252603c8152602001807f596f752061726520617474656d7074696e6720746f207472616e73666572206d81526020017f6f726520746f6b656e73207468616e207468652075736572206861730000000081525060400191505060405180910390fd5b81600260008673ffffffffffffffffffffffffffffffffffffffff1673ffffffffffffffffffffffffffffffffffffffff16815260200190815260200160002060008573ffffffffffffffffffffffffffffffffffffffff1673ffffffffffffffffffffffffffffffffffffffff168152602001908152602001600020541015151561068e576040517f08c379a00000000000000000000000000000000000000000000000000000000081526004018080602001828103825260238152602001807f596f752077657265206e6f7420617070726f76656420666f722074686174206d81526020017f756368000000000000000000000000000000000000000000000000000000000081525060400191505060405180910390fd5b81600160008673ffffffffffffffffffffffffffffffffffffffff1673ffffffffffffffffffffffffffffffffffffffff1681526020019081526020016000206000828254039250508190555081600260008673ffffffffffffffffffffffffffffffffffffffff1673ffffffffffffffffffffffffffffffffffffffff16815260200190815260200160002060003373ffffffffffffffffffffffffffffffffffffffff1673ffffffffffffffffffffffffffffffffffffffff1681526020019081526020016000206000828254039250508190555081600160008573ffffffffffffffffffffffffffffffffffffffff1673ffffffffffffffffffffffffffffffffffffffff168152602001908152602001600020600082825401925050819055508273ffffffffffffffffffffffffffffffffffffffff168473ffffffffffffffffffffffffffffffffffffffff167fddf252ad1be2c89b69c2b068fc378daa952ba7f163c4a11628f55a4df523b3ef846040518082815260200191505060405180910390a3600190509392505050565b6000600160008373ffffffffffffffffffffffffffffffffffffffff1673ffffffffffffffffffffffffffffffffffffffff168152602001908152602001600020549050919050565b600081600160003373ffffffffffffffffffffffffffffffffffffffff1673ffffffffffffffffffffffffffffffffffffffff1681526020019081526020016000205410151515610924576040517f08c379a000000000000000000000000000000000000000000000000000000000815260040180806020018281038252601f8152602001807f596f7520646f6e277420686176652074686174206d616e7920746f6b656e730081525060200191505060405180910390fd5b81600160003373ffffffffffffffffffffffffffffffffffffffff1673ffffffffffffffffffffffffffffffffffffffff1681526020019081526020016000206000828254039250508190555081600160008573ffffffffffffffffffffffffffffffffffffffff1673ffffffffffffffffffffffffffffffffffffffff168152602001908152602001600020600082825401925050819055508273ffffffffffffffffffffffffffffffffffffffff163373ffffffffffffffffffffffffffffffffffffffff167fddf252ad1be2c89b69c2b068fc378daa952ba7f163c4a11628f55a4df523b3ef846040518082815260200191505060405180910390a36001905092915050565b60008054905090565b6000600260008473ffffffffffffffffffffffffffffffffffffffff1673ffffffffffffffffffffffffffffffffffffffff16815260200190815260200160002060008373ffffffffffffffffffffffffffffffffffffffff1673ffffffffffffffffffffffffffffffffffffffff1681526020019081526020016000205490509291505056fea165627a7a723058202ce084c75a31fa090d398e6f63143610e13ea64afa4a7b4bad771e8b55e7426b0029",
  "source": "pragma solidity ^0.5.0;\n\ncontract ERC20Interface {\n\n    //string public constant symbol;\n    //string public constant name;\n    //uint8 public constant decimals;\n    \n    uint totalSupply;\n    mapping(address => uint) balances;\n    mapping(address => mapping(address => uint)) allowed;\n\n    //events\n    event Transfer(address indexed from, address indexed to, uint tokens);\n    event Approval(address indexed tokenOwner, address indexed spender, uint tokens);\n    \n    event TokensBought(address indexed buyer, uint TokenAmount, uint weiAmount);\n    event TokensSold(address indexed seller, uint TokenAmount, uint weiAmount);\n\n    //functions\n    function getTotalSupply() public view returns (uint){\n        return totalSupply;\n    }\n    function balanceOf(address tokenOwner) public view returns (uint balance){\n        return balances[tokenOwner];\n    }\n    function allowance(address tokenOwner, address spender) public view returns (uint remaining){\n        return allowed[tokenOwner][spender];\n    }\n    function transfer(address to, uint tokens) public returns (bool success){\n        require(balances[msg.sender] >= tokens,\"You don't have that many tokens\");\n        balances[msg.sender] -= tokens;\n        balances[to] += tokens;\n        emit Transfer(msg.sender, to, tokens);\n        return true;\n    }\n    function approve(address spender, uint tokens) public returns (bool success){\n        allowed[msg.sender][spender] += tokens;\n        emit Approval(msg.sender, spender, tokens);\n        return true;\n    }\n    function transferFrom(address from, address to, uint tokens) public returns (bool success){\n        require(balances[from] >= tokens, \"You are attempting to transfer more tokens than the user has\");\n        require(allowed[from][to] >= tokens, \"You were not approved for that much\");\n        balances[from] -= tokens;\n        allowed[from][msg.sender] -= tokens;\n        balances[to] += tokens;\n        emit Transfer(from, to, tokens);\n        return true;\n    }\n\n    function() external payable {\n        revert(\"You must call a function to interact with this contract\");\n    }\n}\n\ncontract Token is ERC20Interface {\n\n    function avgPriceBetween(uint low, uint high) public pure returns (uint){\n        //if there is no range, the price is the original price function\n        if (high==low)\n            return (low*low);\n        //average price between low and high --> integral at high minus integral at low / (high-low)\n        return (high**3-low**3)/3/(high-low);\n    }\n    function buyTokens(uint numTokens) public payable{\n        uint equivEth = avgPriceBetween(ERC20Interface.totalSupply,ERC20Interface.totalSupply+numTokens)*numTokens;\n        uint ethFee = equivEth * 101/100; //1% fee to buy tokens\n        require(msg.value >= ethFee, \"You didn't send enough Eth\");\n        ERC20Interface.balances[msg.sender] += numTokens;\n        ERC20Interface.totalSupply += numTokens;\n        msg.sender.transfer(msg.value - ethFee);\n        emit ERC20Interface.TokensBought(msg.sender, numTokens, ethFee);\n    }\n    function sellTokens(uint numTokens) public{\n        uint equivEth = avgPriceBetween(ERC20Interface.totalSupply-numTokens,ERC20Interface.totalSupply)*numTokens;\n        require(ERC20Interface.balances[msg.sender]>=numTokens, \"You cannot sell more tokens than you have\");\n        ERC20Interface.balances[msg.sender] -= numTokens;\n        ERC20Interface.totalSupply -= numTokens;\n        msg.sender.transfer(equivEth);\n        emit ERC20Interface.TokensSold(msg.sender, numTokens, equivEth);\n    }\n\n    function() external payable {\n        revert(\"You must call a function to interact with this contract\");\n    }\n}\n\ncontract AccountManager is ERC20Interface, Token {\n\n    address public owner;\n    \n    uint public accPrice; //price to create an account\n    uint public userPrice; //price to add user to an account\n    \n    Account[] public Accounts;\n    struct Account {address AdminAddr; User[] Users;}\n    struct User {address UserAddy; byte Permissions;}\n    \n    constructor() public {\n        owner = msg.sender;\n        accPrice = 500;\n        userPrice = 100;\n    }\n    \n    // checks that msg.sender is the account owner/admin \n    modifier onlyAccountAdmin (uint _Acct) {\n        require(Accounts[_Acct].AdminAddr == msg.sender, \"You must be the account admin\");\n        _;\n    }\n    \n    // --------------------\n    // Setter functions\n    // --------------------\n    function setAccPrice(uint _newAccPrice) public {\n        require(msg.sender == owner, \"You must be the owner to change the account price.\");\n        accPrice = _newAccPrice;\n    }\n    function setUserPrice(uint _newUserPrice) public {\n        require(msg.sender == owner, \"You must be the owner to change the user price.\");\n        userPrice = _newUserPrice;\n    }\n    \n    // --------------------\n    // App logic functions\n    // --------------------\n    // create new account for msg.sender\n    function createAccount() public {\n        require(ERC20Interface.balanceOf(msg.sender) >= accPrice, \"You do not have enough funds to create an account\");\n        ERC20Interface.transfer(0x0000000000000000000000000000000000000000, accPrice);\n        Accounts.length++;\n        uint acctN = Accounts.length-1;\n        Accounts[acctN].AdminAddr = msg.sender;\n    }\n    // pass account#, user address & permissions to add a user to an account\n    function createUserInAccount(uint _Acct, address _User, byte _Permissions) public onlyAccountAdmin(_Acct) {\n        require(ERC20Interface.balances[msg.sender] >= userPrice, \"Not enough funds!\");\n        ERC20Interface.transfer(0x0000000000000000000000000000000000000000, userPrice);\n        Accounts[_Acct].Users.length++;\n        uint numUsersInAcct = Accounts[_Acct].Users.length-1;\n        Accounts[_Acct].Users[numUsersInAcct].UserAddy = _User;\n        Accounts[_Acct].Users[numUsersInAcct].Permissions = _Permissions;\n    }\n    // pass account#, user# & permissions to change users permissions \n    function modifyUserPermissions(uint _Acct, uint _UserNum, byte _Permissions) public onlyAccountAdmin(_Acct) {\n        Accounts[_Acct].Users[_UserNum].Permissions = _Permissions;\n    }\n    // pass account# & user# to delete user from account\n    function deleteUser(uint _Acct, uint _UserNum) public onlyAccountAdmin(_Acct) {\n        delete Accounts[_Acct].Users[_UserNum];\n    }\n    \n    // --------------------\n    // View functions \n    // --------------------\n    // pass account# & user# to return user address and permissions\n    function userInfo(uint _Acct, uint _UserNum) public view returns(address, byte){\n        return (Accounts[_Acct].Users[_UserNum].UserAddy,Accounts[_Acct].Users[_UserNum].Permissions);\n    }\n    // returns total # of accounts\n    function numAccounts() public view returns(uint) {\n        return Accounts.length;\n    }\n    // pass account# to return # of users in account\n    function numUsersInAccount(uint _AcctNum) public view returns(uint) {\n        return Accounts[_AcctNum].Users.length;\n    }\n\n    function() external payable {\n        revert(\"You must call a function to interact with this contract\");\n    }\n}",
  "sourcePath": "/Users/dylanbaker/Documents/GBC/Repos/Eth4Storage/solidity/test-environment/contracts/AccountManager.sol",
  "compiler": {
    "name": "solc",
    "version": "0.5.0+commit.1d4f565a.Emscripten.clang"
  },
  "schemaVersion": "3.0.1",
  "updatedAt": "2019-01-26T06:24:15.392Z",
  "devdoc": {
    "methods": {}
  },
  "userdoc": {
    "methods": {}
  }
}